:020000040800F2
:10000000A8C70020FD6E0008590200085B02000826
:100010005F02000863020008670200080000000099
:100020000000000000000000000000006B0200085B
:100030006D020008000000006F0200087102000855
:10004000176F0008176F0008176F0008176F000878
:10005000176F0008176F0008EB070008176F0008FC
:10006000176F00082108000855080008176F0008DE
:10007000176F0008176F0008176F0008176F000848
:10008000176F0008176F0008176F0008176F000838
:10009000176F0008176F0008176F0008176F000828
:1000A000176F0008176F0008176F0008176F000818
:1000B000176F000843060008AD040008176F00081A
:1000C000176F0008176F0008176F0008176F0008F8
:1000D000176F0008136E0008C1100008FF09000820
:1000E000176F0008176F0008176F0008176F0008D8
:1000F000176F0008176F0008176F0008176F0008C8
:10010000176F0008176F0008176F0008176F0008B7
:10011000176F0008176F0008290600086706000817
:10012000176F0008176F0008176F0008176F000897
:10013000DFF810D011F0B6FD004800474901000873
:10014000AFF30080A8C7002000F003F94FF4A060CF
:1001500006F0FCFF06F0A4FD0121402007F079FE27
:100160004FF4165006F006FE092141F61F4000F03C
:1001700001FA4FF4165000F0F3FB0CF05CFD0EF0AA
:100180004AFB00F0C7FB00F0C3FA0A2000F0A4FB12
:1001900001F078FF10F057FE40F2CF2140F2E73037
:1001A00000F015FA002006F0D2FE04201AF02CF818
:1001B00014F00AFC13F03EFE1E4811F0A5FF1E4885
:1001C00018F092FC0AF01AF80BF037FA01F0DCFA9A
:1001D00041F61F41312000F03DF901F053F800F0E5
:1001E00029FC04F025FD04F03AFD00F00EFE05F0B8
:1001F0007BFB05F053FB05F0ABFB4FF4164000F022
:1002000094FFC82006F089FD0CA021F00BFA002015
:100210000F4908600DE000F075FB0CF066F805F082
:100220003AF904F0F7FF0B480EF04DFD142013F0DF
:10023000A1FFF0E7B11E0108BD890108CDE2C9E8C0
:10024000C4A3BFE9B3F5CABCBBAFBDE1CAF80A009D
:100250009481214220B50020704700BFFEE700BF17
:10026000FEE700BFFEE700BFFEE77047704770473C
:10027000704700000CB50020019000906C480068A9
:1002800040F480306A49086000BF6948006800F4A3
:10029000003000900198401C0190009818B9019816
:1002A000B0F5A06FF1D16248006800F4003010B1E1
:1002B0000120009001E0002000900098012843D127
:1002C0005C48006840F010005A4908600846006821
:1002D00020F0030008600846006840F00200086053
:1002E000534840685249486008464068486008469C
:1002F000406840F4806048600846406820F47C1004
:1003000048600846406840F4E810486008460068C5
:1003100040F08070086000BF4548006800F0007041
:100320000028F9D04248406820F003004049486066
:100330000846406840F00200486000BF3C48406802
:1003400000F00C000828F9D10CBD10B5FFF792FFA2
:1003500010BD10B53648006840F00100344908600F
:1003600008464068344908403149486008460068FA
:10037000324908402E4908600846006820F4802071
:1003800008600846406820F4FE0048604FF41F00F3
:100390008860FFF7DAFF4FF000602949086010BD60
:1003A00010B5002100200022214B5B6803F00C01F6
:1003B00021B1042906D0082928D107E0214B224C7D
:1003C000236027E01F4B204C236023E0184B5B6821
:1003D00003F47010164B5B6803F48032022303EBC6
:1003E000904022B9194B4343174C23600DE0104B4A
:1003F0005B6803F4003323B1144B4343124C236076
:1004000003E0104B4343104C236003E00D4B0E4CB4
:10041000236000BF00BF064B5B68C3F303130C4CA3
:10042000E15C094B1B68CB40074C236010BD00000A
:1004300000100240002002400000FFF8FFFFF6FE1F
:1004400008ED00E000127A000000002000093D00E5
:10045000040000207FB505460C460121042007F06A
:1004600012FDADF80850ADF804400020ADF80A00C8
:10047000ADF8060001A99D4807F030FE01221146A3
:100480009A4808F0A2F91E208DF8000003208DF88C
:1004900001008DF8020001208DF80300684606F087
:1004A0005AFE0121914808F075F97FBD10B5012170
:1004B0008E4808F038FC00285BD001218B4808F0FA
:1004C00043FC8B480068401C894908608948407893
:1004D000012846D108460068032190FBF1F201FB98
:1004E000120060B182480068642808DA042182485A
:1004F00007F0AFFA0121804807F0A9FA39E07C48FB
:100500000068C82810DA7A480068032190FBF1F2ED
:1005100001FB120040B90421774807F09AFA012143
:10052000754807F096FA24E071480068642810DDE9
:100530006F480068032190FBF1F201FB120040B10B
:1005400001216D4807F085FA04216B4807F07FFA16
:100550000FE067480068C8280BDD00206449086088
:1005600007E00421644807F072FA0121624807F0AD
:100570006EFA10BD7FB505460C460121022007F03A
:1005800082FCADF80850ADF804400020ADF80A0038
:10059000ADF8060001A9594807F0A0FD0122114657
:1005A000564808F012F91D208DF8000000208DF843
:1005B000010003208DF8020001208DF80300684639
:1005C00006F0C9FD01214D4808F0E4F87FBD7FB574
:1005D00004460D460121102007F055FCADF80450EB
:1005E0000020ADF80600ADF80840ADF80A0001A9FA
:1005F000434807F073FD01224121414808F0E5F826
:1006000036208DF8000001208DF8010003208DF8C0
:10061000020001208DF80300684606F09CFD0121D0
:10062000374808F0B7F87FBD10B50121344808F00D
:100630007AFB08B115F02AF90121314808F084FB52
:1006400010BD10B501212D4808F06DFB50B10CF024
:10065000F8FA2C480068401C2A4908600121274804
:1006600008F072FB10BD10B50121274808F05BFBB4
:1006700068B12648008840F40040244908800121E0
:10068000214808F061FB00211F4808F083F810BDE5
:100690007FB505460C460121202007F0F4FBADF89C
:1006A0000450ADF800400020ADF80600ADF802009F
:1006B0006946154807F012FD01221146124808F05C
:1006C00084F80121104808F065F837208DF80C00F7
:1006D00000208DF80D0002208DF80E0001208DF80D
:1006E0000F0003A806F037FD7FBD000000080040A2
:1006F0001800002054B50020001C014000040040F8
:1007000000100040A8000020001400402400002039
:100710001FB50121442007F0A9FB0121084607F07D
:10072000A5FB1820ADF80C0048208DF80F0003A998
:10073000554807F0DFF80120ADF80C0028208DF8AF
:100740000F0003A9514807F0D5F80321042007F052
:10075000E7F90820019000208DF808000C208DF8A2
:10076000090001A808F006FD0421084607F0D8F9A1
:100770001020019001A808F0FDFC0021084607F0B8
:10078000CFF90120019008208DF8090001A808F098
:10079000F1FC06208DF8000002208DF801000020F9
:1007A0008DF8020001208DF80300684606F0D3FCA6
:1007B00009208DF8000002208DF8010001208DF83D
:1007C00002008DF80300684606F0C5FC0A208DF88B
:1007D000000002208DF801008DF8020001208DF844
:1007E0000300684606F0B7FC1FBD10B50A2006F0EE
:1007F00094FA0121254807F010F901280CD10020B6
:100800000EF020F801202249086000202149C1F89B
:10081000940121A020F006FF012008F022FD10BD68
:1008200010B50A2006F079FA0821174807F0F5F804
:1008300060B902200EF006F800201549086001207A
:100840001449C1F8940118A020F0ECFE082008F02B
:1008500008FD10BD10B50A2006F05FFA10210A4805
:1008600007F0DBF860B901200DF0ECFF002008492B
:10087000086001200749C1F8940111A020F0D2FEC0
:10088000102008F0EEFC10BD0018014000080140E7
:10089000940123420080214277696669CDF8C2E75E
:1008A000D6D8D6C30D0A0000574946495F41495280
:1008B0004C494E4B5F4D4F4445C5E4D6C30D0A002D
:1008C000574946495F534F465441505F4D4F444549
:1008D000C5E4D6C30A00000070B50446042540F202
:1008E0007120604386B245F2555008F0C3FC28469B
:1008F00008F0C3FC304608F0C3FC08F0C4FC08F064
:10090000C7FC70BD4AF6AA20014908607047000084
:100910000030004008B50121482007F0A7FA202048
:10092000ADF8000010208DF8030003208DF80200C0
:100930006946094806F0DEFF2021074807F087F8DE
:100940002020ADF800006946044806F0D3FF2021BE
:10095000024807F07CF808BD000C01400018014077
:1009600010B586B004460121082007F07FFA012166
:10097000880407F088FA4FF48060ADF81000032077
:100980008DF8120018208DF8130004A9274806F0EE
:10099000B1FF4FF40060ADF8100004208DF8130093
:1009A00004A9224806F0A6FF00940020ADF8040038
:1009B000ADF80600ADF80800ADF80C000C20ADF85D
:1009C0000A0069461A4808F006FA0121184808F09A
:1009D0008EFA012240F22551154808F094FA27209A
:1009E0008DF8140000208DF8150001208DF81600F8
:1009F0008DF8170005A806F0AEFB06B010BD08B5CF
:100A000040F225510A4808F063FB40B1084808F05D
:100A1000DFFAC0B20090012168460CF0FFFA40F204
:100A20002551034808F07EFB08BD0000000C014082
:100A30000048004000B587B0012140F2144007F0A3
:100A400015FA4FF4004007F075F900208DF81B00EF
:100A50008020ADF8180003208DF81A0006A98448FC
:100A600006F048FF0820ADF8180006A9814806F0F6
:100A700041FF4020ADF8180006A97D4806F03AFF76
:100A800000208DF8090004904FF4602003900020AE
:100A9000019001208DF8140000208DF8080001A9B4
:100AA000754808F02EFC0121734808F056FC724886
:100AB00008F075FC00BF704808F076FC0028FAD1F9
:100AC0006D4808F07BFC00BF6B4808F07CFC0028F8
:100AD000FAD107B000BD10B5044607230122214614
:100AE000654808F0A6FC0121634808F076FC00BFC9
:100AF0000221614808F0E2FD0028F9D05E4808F0C4
:100B0000FFFC10BD2DE9F04707460C4600250026E6
:100B10000CE03846FFF7DFFF814610F033FE8046D9
:100B2000294610F0DFFB0546701CC6B2A642F0DB7A
:100B3000204610F030FE80464146284610F05CFC0E
:100B400005462846BDE8F0872DE9FC5F4FF0000A16
:100B5000D3464A48019003210720FFF7D3FF83467D
:100B60004FF08B41019810F047FC0446594610F0B5
:100B700011FC83465946019810F006FC009010F0D5
:100B800092FE804600223E4B10F01BFD06460022DE
:100B90003C4B10F088FD044610F0C8FE82465046DB
:100BA000BDE8FC9F2DE9FF5FDFF8D0A005210D20F7
:100BB000FFF7A8FF0546514610F0ECFB04464FF046
:100BC0008B4110F019FC8346584610F06CFE8046AD
:100BD0002D4A2E4B10F04EFC06460022284B10F0FA
:100BE000F0FC044610F027FE009010F0CBFD2849E1
:100BF000019010F001FC83465946504610F0C4FBAA
:100C00000546594610F0F8FB044622480168204684
:100C100010F0C0FB02902049029810F0EDFB01900B
:100C200010F041FE06464FF040421C4B22F048F8BF
:100C300004464FF020421A4B10F0C3FC804610F0DF
:100C400075FE0390039804B0BDE8F09F70B50024D2
:100C500005210620FFF756FF05461249284610F0E9
:100C600099FB0646104910F095FB0446204670BDDE
:100C70000008014000100140002801400000A04091
:100C800000005940000014407B14AE47E17A743FE5
:100C90000000C842200000206666C640F753F7BF38
:100CA0009B9458400000A03A00007A4410B5654873
:100CB000406820F47040634948600846406840F44A
:100CC00040504860002060490860142006F025F874
:100CD00001205E49C1F8AC011E2005F0FAFF10BDED
:100CE00010B500245748406820F4704055494860CA
:100CF0000846406840F40040486004E0601CC4B20C
:100D0000012005F0E6FF50488038006808B1642CE7
:100D1000F4DB642C01DB012010BD002404E0601C26
:100D2000C4B2012005F0D5FF47488038006808B9F3
:100D3000642CF4DB642C01DB0120EDE70020EBE701
:100D400010B5002404E0601CC4B2012005F0C1FF0E
:100D50003D488038006808B1642CF4DB002404E0CE
:100D6000601CC4B2012005F0B4FF37488038006829
:100D700008B9642CF4DB282005F0ABFF324880383A
:100D8000006808B1012010BD0020FCE770B5002408
:100D9000002506E06006040EFFF7D2FF0443681C3E
:100DA000C5B2082DF6DB204670BD7CB505460E4663
:100DB000FFF77CFFFFF794FF18BB002405E0FFF767
:100DC000E5FF0DF80400601CC4B2052CF7DB9DF8AC
:100DD00000009DF8011008449DF8021008449DF899
:100DE000031008449DF8041088420CD19DF80000BF
:100DF00010F0D1FC30609DF8020010F0CCFC2860AF
:100E000001E001207CBD0020FCE708B50121802025
:100E100007F02CF84FF40060ADF8000010208DF8BA
:100E2000030003208DF802006946094806F062FDC0
:100E30004FF40061034806F00AFEFFF737FFFFF7A3
:100E40004FFF08BD00200140AC01244200002442B5
:100E5000001C014008B50121082007F007F8C02058
:100E6000ADF8000010208DF8030003208DF802007B
:100E70006946904806F03EFDC0218E4806F0E7FD29
:100E800008BD10B58B48006820F0704089490860A3
:100E90000846006840F0405008600120864908601C
:100EA0008649C1F89801042005F013FF002082490B
:100EB0000860042005F00DFF00208049C1F898016A
:100EC00010BD10B57B48006820F07040794908607B
:100ED0000846006840F04050086000207649091F2D
:100EE00008607649C1F89C01042005F0F2FE01205B
:100EF0007149091F08607149C1F89C01042005F07F
:100F0000E8FE10BD10B500246A48006820F070406B
:100F1000684908600846006840F000400860012009
:100F20006549086005F0D5FE01206449C1F89801C3
:100F300005F0CFFE07E0601CC4B2FA2C03DDFFF71A
:100F4000C0FF012010BD5C48803800680028F2D145
:100F50005949091F086000BFF4E710B50020564941
:100F6000091F08605348006820F07040514908602C
:100F70000846006840F04050086000204F49C1F822
:100F80009C01022005F0A5FE01204B49091F0860C5
:100F9000022005F09EFE00204849C1F8980110BDCE
:100FA00010B500204449091F08604248006820F03D
:100FB0007040404908600846006840F040500860B2
:100FC00001203E49C1F89C01022005F082FE01206B
:100FD0003949091F0860022005F07BFE00203749CF
:100FE000C1F8980110BD70B504463248006820F081
:100FF0007040304908600846006840F04050086082
:1010000000202D49091F086000251DE0E00918B1E6
:1010100001202949086002E0002027490860600695
:10102000040E022005F055FE01202349091F086027
:10103000022005F04EFE00202049C1F89801022050
:1010400005F047FE681CC5B2082DDFDB70BD70B52A
:10105000054600241748006820F0704015490860D4
:101060000846006840F000400860002617E00020B5
:101070001149091F0860022005F02BFE01200F49CD
:10108000C1F898016006040E0B488038006808B16A
:10109000601CC4B2012005F01CFE701CC6B2082EF4
:1010A000E5DB15B9FFF77CFF01E0FFF756FF2046AF
:1010B00070BD0000000C01409C8121420080214253
:1010C00010B540F22551664808F002F828B364488C
:1010D00007F07EFFC4B26348008800F40040E0B926
:1010E00060480088B0F5167F18DA00215E4807F0E6
:1010F000E5FD5C48008818B901215B4807F04AFB10
:1011000058490888411C574A118058490C5458487E
:101110000068C0435749C1F8940105E05148008870
:1011200040F400404F49088010BD10B586B0044619
:101130000121042006F09AFE0121480406F0A3FED6
:101140000420ADF8100003208DF8120018208DF84F
:10115000130004A9484806F0CDFB0820ADF81000A4
:1011600004208DF8130004A9434806F0C3FB009443
:101170000020ADF80400ADF80600ADF80800ADF8A9
:101180000C000C20ADF80A006946354807F023FE34
:101190000121334807F0ABFE012240F225513048CF
:1011A00007F0B1FE26208DF8140000208DF8150000
:1011B00001208DF816008DF8170005A805F0CBFF6B
:1011C00041F61F4140F2E730FFF762FA002025495F
:1011D00008800021244807F0DDFA06B010BD0FB4E6
:1011E00038B505A800902548009A049920F03EFAE9
:1011F00000200090214810F04AF885B200240DE04C
:1012000000BF4021164807F04DFF0028F9D01B48C9
:10121000015D134807F0D8FE601C84B2AC42EFDBDE
:1012200038BC5DF814FB70B504460D46E1B21448B5
:1012300007F0CAFE00BF4021114807F033FF002825
:10124000F9D0204670BD10B5044600BF20210C48DF
:1012500007F028FF0028F9D0094807F0B9FE10BDB3
:10126000004400402400002000140040B00500208D
:10127000948121420080214200080140080800209A
:101280000038014008B50121102006F0EFFD0320D1
:10129000ADF8000014208DF8030003208DF8020043
:1012A0006946FE4806F026FB0321FC4806F0CFFB0A
:1012B00008BD10B5022005F00CFD10BD10B50120D1
:1012C000F7490860F749C1F88001FFF7F2FF0020F5
:1012D000F3490860FFF7EDFF0020F249C1F88001F3
:1012E000FFF7E7FF10BD10B50020ED490860ED499C
:1012F000C1F88001FFF7DDFF0120E949091F0860FF
:10130000FFF7D7FF0120E749C1F88401FFF7D1FFBC
:1013100010BD70B50546002600240020E049091FD5
:101320000860052005F0D5FC00BF17E06006040E3C
:101330000020DB49091F0860192005F0CAFC0120C4
:10134000D849C1F88001192005F0C3FCD448803881
:10135000006808B144F00104701CC6B2082EE5DB39
:101360000020CF49091F08600F2005F0B2FC1DB90D
:101370000020CB49086002E00120C94908600F2025
:1013800005F0A7FC0120C649091F0860142005F0DC
:10139000A0FC0020C349C1F88001142005F099FC8D
:1013A000204670BD70B50446002500260020BC49CB
:1013B000091F0860BB49C1F88401FFF77AFF00BF2D
:1013C0001EE00020B649091F08600F2005F081FCCF
:1013D00004F0800018B10120B149086002E000204B
:1013E000AF4908606006040E142005F072FC01206D
:1013F000AB49091F0860142005F06BFC681CC5B2DE
:10140000082DDEDB0020A649091F08600120A54940
:10141000C1F884010A2005F05CFC0120A149C1F853
:1014200080010846D0F8040108B1002600E001263A
:101430000A2005F04EFC00209949091F086014207D
:1014400005F047FC304670BDFCB502460F462F2420
:1014500000BF00208DF805008DF804008DF8030012
:101460008DF8020001208DF8010007208DF80000A2
:101470002F2400250521002309E0601EC4B2072B9C
:1014800002DA581CC3B202E00023481EC1B2505C0D
:101490004FF0800C4CFA03FC00EA0C0008B900295C
:1014A000EBDCA4F10800C5B21EE0052118E0481EDF
:1014B0001DF8000000F0800018B1002901DD0126B0
:1014C00000E000261DF801004006000E0DF80100A6
:1014D0001DF801003044C0B20DF80100481EC1B231
:1014E000FF29E4DB681EC5B2002DDED1002107E034
:1014F000505C1DF801C080EA0C005054481CC1B279
:101500000529F5DD082CA4DC1078FCBD2DE9FE4F83
:1015100004460D460A2002904FF000090020604961
:10152000091F086055E0FFF7C9FE002141EA4401A8
:10153000C8B2FFF737FF8146B9F1010F45D14FF02F
:1015400000092846FFF72EFF8146B9F1010F3BD174
:101550004FF00009FFF7B2FE012101EB4401C8B2D0
:10156000FFF720FF8146B9F1010F2CD14FF00009A0
:101570000120FFF7CEFE06460120FFF7CAFE074610
:101580000120FFF7C6FE8046FFF7ADFE6006000EA5
:101590008DF8050045F020008DF80400012000EBD7
:1015A0004400C0B28DF803008DF802608DF8017020
:1015B00000208DF8000006216846FFF745FF8246AF
:1015C000C24503D10BE002E001E000E000BFFFF7FD
:1015D0008AFE0298411EC9B202910028A3D100BF21
:1015E00008F1010000F0FF0806EB07201FFA80FB5E
:1015F0005846BDE8FE8F2DE9F04F8DB007460E46E8
:101600009046994600200C9000243FE058F824B002
:10161000002532E0AC422ED056F8251056F82400B2
:101620000FF0B2FE059010F03EF9CDE9080156F832
:10163000251048460FF0A8FE019010F034F9CDE9CE
:101640000401584610F02FF90022174BCDE9000194
:101650000FF0B7FFCDE90201DDE904230FF0B1FF80
:10166000CDE90601DDE9082310F01DF8CDE90A01F6
:1016700010F05CF98346681CC5B2BD42CADB59460E
:101680000C980FF02FFE0C90601CC4B2BC42BDDB66
:10169000DDF830A050460DB0BDE8F08F00100140DD
:1016A00084012242000022420000F03F70B504464F
:1016B0000D462968206810F05FF901D2012070BD45
:1016C0004FF0FF30FBE72DE9F04FABB00020029068
:1016D00082464FF01E0B00BF25E007210020FFF7D8
:1016E00015FF0190019810F05BF80646214A224B45
:1016F0000FF067FF04464FF06632204B0FF05BFFA0
:10170000804610F013F903A941F82A0003A850F805
:101710002A301B4A1B490320FFF76DFF03A941F83C
:101720002A000AF1010ADA45D7DBAFF27F0304226F
:10173000594603A80FF019FD4FF00E0A08E003A860
:1017400050F82A1002980FF0CDFD02900AF1010A1C
:10175000ABF10C005045F2DC0E3810F013F80446E3
:10176000214602980FF048FE029002982BB0BDE887
:10177000F08F00007B14AE47E17A943F661271400F
:10178000280000203400002008B50121802006F048
:101790006DFB0520ADF8000010208DF8030003203C
:1017A0008DF8020069460E4806F0A4F805210C48A1
:1017B00006F04FF908BD10B50121094806F049F9B6
:1017C0000421074806F045F910BD10B5042104486E
:1017D00006F03DF90421024806F03BF910BD000077
:1017E000001C0140FE4908807047FD49891C0880A3
:1017F000704708B5FA48801C00880090BDF80000CA
:1018000008BDF74A1080921C1180704710B504463D
:101810002046FFF7E7FF052005F05BFAFFF7E9FF39
:1018200010BDF0480089EE4908807047EC49891CDA
:101830000880704730B5014601F01F04C1F345131D
:10184000CA0AE50205EB43151544A8B230BD00BF36
:10185000011EA0F10102D0B2FAD1704700B50246D4
:101860000B46E048808841F66311884247D1DD4845
:101870008079A8B9DB480088401E801A82B2D94915
:101880004889FFF7AFFF0020FFF7AFFF0020FFF709
:10189000ACFF1012FFF7A9FFD0B2FFF7A6FF16E0CA
:1018A000D0494889FFF79EFF1012FFF79EFFD0B284
:1018B000FFF79BFFCB490988491EC1F30F20FFF7B3
:1018C00094FFC8490978491EC8B2FFF78EFFC54981
:1018D0008889FFF787FF1812FFF787FFD8B2FFF755
:1018E00084FFC0494988491EC1F30F20FFF77DFFDF
:1018F000BC498978491EC8B2FFF777FF3AE0B9487A
:10190000808845F21051884220D1B6494889FFF7B6
:1019100069FF1012FFF769FFB2494989491C88B273
:10192000FFF760FFD0B2FFF760FFAE498889FFF78D
:1019300059FF1812FFF759FFAA498989491C88B233
:10194000FFF750FFD8B2FFF750FF13E0A5494889D1
:10195000FFF748FF1012FFF748FFD0B2FFF745FF2F
:10196000A0498889FFF73EFF1812FFF73EFFD8B263
:10197000FFF73BFF00BD2DE9F04105460E469948B3
:101980000088A84203DD97484088B04202DC00206E
:10199000BDE8F08131462846FFF760FF9148808816
:1019A00045F21051884204D14FF43850FFF71AFF26
:1019B00002E02E20FFF716FFFFF71BFF04468948C1
:1019C000808841F66311884201D12046E0E7FFF7A5
:1019D00010FF0446FFF70DFF8046E7B24FF6FF7099
:1019E00000EA0727E012C002B91240EA411040EABB
:1019F000E820CDE700B57B48808845F21051884249
:101A000004D14FF42450FFF7EDFE02E02920FFF748
:101A1000E9FE00BD00B57348808845F21051884248
:101A200004D14FF42050FFF7DDFE02E02820FFF73D
:101A3000D9FE00BD70B504460023002669488079B0
:101A4000012805D16748808841F66311884208D192
:101A500064488079F0B96348808841F66311884210
:101A600018D1082C15D2DFE804F00406080A0C0E81
:101A7000101206240DE007240BE0042409E00524DD
:101A800007E0012405E0002403E0032401E0022430
:101A900000BF00BF082C1CD2DFE804F00406090CCC
:101AA0000F12151800BF14E043F0800311E043F05B
:101AB00040030EE043F0C0030BE043F0200308E0D6
:101AC00043F0600305E043F0A00302E043F0E003CD
:101AD00000BF00BF4348808845F21051884202D1C0
:101AE0004FF4585600E036263E48808849F241318E
:101AF000884205D03B48808847F28971884201D1ED
:101B000043F0080319463046FFF77BFE35488088CE
:101B100041F6631188421DD003F0200068B13148BE
:101B2000008830494988884214DA2E480588408860
:101B30002C490880084645800CE02A48008829493D
:101B40004988884206DD274805884088254908805D
:101B5000084645802348808845F21051884257D175
:101B600020494889FFF73EFE0020FFF73EFE1D4951
:101B70004989491C88B2FFF735FE0020FFF735FE82
:101B800018494989891C88B2FFF72CFE1549098834
:101B9000491EC1F30F20FFF728FE12494989C91CCD
:101BA00088B2FFF71FFE0F490978491EC8B2FFF738
:101BB0001CFE0C498889FFF715FE0020FFF715FE73
:101BC00008498989491C88B2FFF70CFE0020FFF7FD
:101BD0000CFE04498989891C88B2FFF703FE03E0E3
:101BE000FE07006C600A0020FE494988491EC1F3C7
:101BF0000F20FFF7FAFDFB498989C91C88B2FFF75E
:101C0000F1FDF8498978491EC8B2FFF7EEFD2DE0D5
:101C1000F4494889FFF7E6FD0020FFF7E6FD0020C4
:101C2000FFF7E3FDEF490988491EC1F30F20FFF7D5
:101C3000DCFDEC490978491EC8B2FFF7D6FDE94939
:101C40008889FFF7CFFD0020FFF7CFFD0020FFF7C9
:101C5000CCFDE4494988491EC1F30F20FFF7C5FDBB
:101C6000E0498978491EC8B2FFF7BFFD70BD30B5A5
:101C700004460D4629462046FFF7F0FDFFF7D1FD4B
:101C8000D9480088D949088030BD10B503460C46B4
:101C9000D448808845F21051884220D1D1494889E2
:101CA000FFF7A0FD1812FFF7A0FDCE494989491C96
:101CB00088B2FFF797FDD8B2FFF797FDC949888929
:101CC000FFF790FD2012FFF790FDC6498989491C56
:101CD00088B2FFF787FDE0B2FFF787FD42E0C14819
:101CE000808841F66311884228D1BE48807920B9A6
:101CF000BC480088401EC01A83B2BA494889FFF721
:101D000071FD1812FFF771FDD8B2FFF76EFD1812C2
:101D1000FFF76BFDD8B2FFF768FDB2498889FFF77E
:101D200061FD2012FFF761FDE0B2FFF75EFD2012BA
:101D3000FFF75BFDE0B2FFF758FD13E0A9494889C2
:101D4000FFF750FD1812FFF750FDD8B2FFF74DFD19
:101D5000A4498889FFF746FD2012FFF746FDE0B24F
:101D6000FFF743FD9F480089A049891E0880881C11
:101D7000028010BD2DE9F0470446BE20FFF732FD7A
:101D80000520FFF732FD20460FF01BFD07464FF000
:101D90006632974B0FF015FC05460FF06BFD1FFAEE
:101DA00080F94846FFF721FD0120FFF71EFDFF20C7
:101DB000FFF71BFD0020FFF718FD0020FFF715FDC2
:101DC000BDE8F08710B5044686488471002C45D1E3
:101DD000F020844908804FF4A0704880084680882D
:101DE00045F21051884210D14FF430507D4908819E
:101DF0004FF4285048814FF42C5088814FF4F070F4
:101E000008804FF4487048801AE07648808841F690
:101E1000631188420DD12C20724908812B20488102
:101E20002A2088814FF4F07008804FF44870488071
:101E300006E02C206B4908812A2048812B208881CC
:101E40006848808845F2103188424CD14FF4A07028
:101E5000644908804FF4F070488044E04FF4A0706B
:101E600060490880F02048800846808845F210517B
:101E7000884210D14FF430505A4908814FF428500D
:101E800048814FF42C5088814FF4487008804FF4FB
:101E9000F07048801AE05348808841F66311884208
:101EA0000DD12C204F4908812A2048812B20888180
:101EB0004FF4487008804FF4F070488006E02C2002
:101EC000484908812A2048812B20888145488088FC
:101ED00045F21031884206D14FF4F0704149088034
:101EE0004FF4A07048800020FFF7A4FD10BDF0B5AE
:101EF00004460D46A018401E86B2E818401E87B260
:101F00003848808841F66311884231D1354880795C
:101F100001282DD033480088801A001B84B2E818AD
:101F2000401E83B22F494889FFF75CFC2012FFF75F
:101F30005CFCE0B2FFF759FCA118491EC1F30F2069
:101F4000FFF753FCA118491EC8B2FFF74EFC254904
:101F50008889FFF747FC2812FFF747FCE8B2FFF734
:101F600044FC1812FFF741FCD8B2FFF73EFC73E0C7
:101F70001C48808845F2105188424DD11949488942
:101F8000FFF730FC2012FFF730FC16494989491C45
:101F900088B2FFF727FCE0B2FFF727FC1149498917
:101FA000891C88B2FFF71EFC3012FFF71EFC0D499A
:101FB0004989C91C88B2FFF715FCF0B2FFF715FC80
:101FC00008498889FFF70EFC2812FFF70EFC054927
:101FD0008989491C88B2FFF705FCE8B2FFF705FCC8
:101FE000004907E0600A0020400000200008006C63
:101FF000666604408989891C88B2FFF7F3FB3812B2
:10200000FFF7F3FBFE498989C91C88B2FFF7EAFB99
:10201000F8B2FFF7EAFB1FE0F9494889FFF7E2FB56
:102020002012FFF7E2FBE0B2FFF7DFFB3012FFF711
:10203000DCFBF0B2FFF7D9FBF1498889FFF7D2FB4F
:102040002812FFF7D2FBE8B2FFF7CFFB3812FFF7F9
:10205000CCFBF8B2FFF7C9FBF0BD70B50446002613
:10206000E74805884088454300210846FFF7F6FB0E
:10207000FFF7D7FB00BF02E0E2480480761CAE42C7
:10208000FAD370BD00B59FB00121080205F0E1FE52
:1020900001214FF4B47005F0E9FE0120ADF878009D
:1020A00010208DF87B0003208DF87A001EA9D648F9
:1020B00005F020FC4CF23370ADF8780018208DF854
:1020C0007B0003208DF87A001EA9D04805F012FC91
:1020D0004FF68070ADF8780018208DF87B00032053
:1020E0008DF87A001EA9CA4805F004FC41F20100EF
:1020F000ADF8780018208DF87B0003208DF87A0069
:102100001EA9C44805F0F6FB0120089000200990A4
:102110000F200A9000200B900C900D900E900190D3
:1021200002900320039000200490059006900790F1
:1021300006200F9000201090119010201290002087
:10214000139015901490169017904FF4805018909B
:10215000002019904FF480401A9000201B9008A88E
:102160001C9001A81D900FA805F0AAF801210620D7
:1021700005F00EFA322004F0D0FDD320FFF732FB39
:10218000FFF737FB9E498880FFF733FB9C49888027
:10219000FFF72FFB9A498880084680884FF6FF7129
:1021A00001EA002096498880FFF723FB944989883B
:1021B0000843934988800846808849F24131884223
:1021C0007DD00420FFF70EFBFFF713FB8C498880BE
:1021D000FFF70FFB8A498880FFF70BFB884988804F
:1021E000084680884FF6FF7101EA00208449888004
:1021F000FFF7FFFA824989880843814988800846A9
:10220000808848F25251884203D147F289707C4954
:1022100088807B48808847F289718842D0D0D4205A
:10222000FFF7E0FAFFF7E5FA75498880FFF7E1FA72
:1022300073498880FFF7DDFA7149888008468088F5
:102240004FF6FF7101EA00206D498880FFF7D1FA4F
:102250006B49898808436A4988800846808845F226
:102260001031884262D055214FF47040FFF7C9FA0F
:10227000AA214FF20100FFF7C4FA52214FF20200E7
:10228000FFF7BFFA08214FF20300FFF7BAFA012166
:102290004FF20400FFF7B5FA4FF44540FFF7A2FAFA
:1022A000FFF7A7FA56498880084680884FF6FF71E5
:1022B00001EA0020524988804CF2015000E035E0EC
:1022C000FFF790FAFFF795FA4D49898808434C4982
:1022D0008880052004F021FD4948808845F210518E
:1022E000884223D0A120FFF77DFAFFF782FA444904
:1022F0008880FFF77EFA42498880084680884FF63A
:10230000FF7101EA00203E498880FFF772FA3C49DC
:10231000898808433A4988800846808845F2617177
:10232000884203D141F6631035498880344881885A
:1023300039A01FF077F93248808849F2413188424C
:1023400072D1CF20FFF74EFA0020FFF74EFAC120DE
:10235000FFF74BFA3020FFF748FAED20FFF742FA7B
:102360006420FFF742FA0320FFF73FFA1220FFF73D
:102370003CFA8120FFF739FAE820FFF733FA85208D
:10238000FFF733FA1020FFF730FA7A20FFF72DFA23
:10239000CB20FFF727FA3920FFF727FA2C20FFF789
:1023A00024FA0020FFF721FA3420FFF71EFA02205A
:1023B000FFF71BFAF720FFF715FA2020FFF715FAB1
:1023C000EA20FFF70FFA0020FFF70FFA0020FFF7CF
:1023D0000CFAC020FFF706FA1B20FFF706FAC1200F
:1023E000FFF700FA0120FFF700FAC520FFF7FAF91E
:1023F0003020FFF7FAF93020FFF7F7F9C72014E093
:10240000600A00200008006C000C0140001401402C
:102410000018014000200140204C43442049443A28
:1024200025780D0A00000000B7E0FFF7DBF9B720C0
:10243000FFF7DBF93620FFF7D5F94820FFF7D5F98C
:102440003A20FFF7CFF95520FFF7CFF9B120FFF77A
:10245000C9F90020FFF7C9F91A20FFF7C6F9B6201D
:10246000FFF7C0F90A20FFF7C0F9A220FFF7BDF976
:10247000F220FFF7B7F90020FFF7B7F92620FFF7A2
:10248000B1F90120FFF7B1F9E020FFF7ABF90F2018
:10249000FFF7ABF92A20FFF7A8F92820FFF7A5F9E5
:1024A0000820FFF7A2F90E20FFF79FF90820FFF799
:1024B0009CF95420FFF799F9A920FFF796F94320DA
:1024C000FFF793F90A20FFF790F90F20FFF78DF936
:1024D0000020FFF78AF90020FFF787F90020FFF7B7
:1024E00084F90020FFF781F9E120FFF77BF9002054
:1024F000FFF77BF91520FFF778F91720FFF775F93B
:102500000720FFF772F91120FFF76FF90620FFF798
:102510006CF92B20FFF769F95620FFF766F93C208C
:10252000FFF763F90520FFF760F91020FFF75DF969
:102530000F20FFF75AF93F20FFF757F93F20FFF729
:1025400054F90F20FFF751F92B20FFF74BF900202A
:10255000FFF74BF90020FFF748F90120FFF745F995
:102560003F20FFF742F92A20FFF73CF90020FFF750
:102570003CF90020FFF739F90020FFF736F9EF208A
:10258000FFF733F91120FFF72DF9782004F0C5FB90
:102590002920FFF727F902F0A6B8FE48808847F205
:1025A000897188427ED11120FFF71CF9782004F050
:1025B000B4FB3620FFF716F90020FFF716F93A2092
:1025C000FFF710F90520FFF710F9B220FFF70AF91D
:1025D0000C20FFF70AF90C20FFF707F90020FFF79E
:1025E00004F93320FFF701F93320FFF7FEF8B72095
:1025F000FFF7F8F83520FFF7F8F8BB20FFF7F2F8FF
:102600003220FFF7F2F8C020FFF7ECF80C20FFF7BC
:10261000ECF8C220FFF7E6F80120FFF7E6F8C32048
:10262000FFF7E0F81020FFF7E0F8C420FFF7DAF832
:102630002020FFF7DAF8C620FFF7D4F80F20FFF7C5
:10264000D4F8D020FFF7CEF8A420FFF7CEF8A120D1
:10265000FFF7CBF8E020FFF7C5F8D020FFF7C5F86B
:102660000020FFF7C2F80220FFF7BFF80720FFF7AE
:10267000BCF80A20FFF7B9F82820FFF7B6F8322097
:10268000FFF7B3F84420FFF7B0F84220FFF7ADF8AA
:102690000620FFF7AAF80E20FFF7A7F81220FFF791
:1026A000A4F800E054E01420FFF79FF81720FFF78C
:1026B0009CF8E120FFF796F8D020FFF796F800206D
:1026C000FFF793F80220FFF790F80720FFF78DF847
:1026D0000A20FFF78AF82820FFF787F83120FFF754
:1026E00084F85420FFF781F84720FFF77EF80E208A
:1026F000FFF77BF81C20FFF778F81720FFF775F835
:102700001B20FFF772F81E20FFF76FF82A20FFF753
:1027100069F80020FFF769F80020FFF766F800204D
:10272000FFF763F8EF20FFF760F82B20FFF75AF868
:102730000020FFF75AF80020FFF757F80120FFF7B5
:1027400054F83F20FFF751F82920FFF74BF822E714
:102750009048808845F21031884240F07C87ED2017
:10276000FFF740F80120FFF740F8FE20FFF73DF8A3
:10277000EE20FFF737F8DE20FFF737F82120FFF7CC
:1027800034F8F120FFF72EF80120FFF72EF8DF20B4
:10279000FFF728F81020FFF728F8C420FFF722F8E9
:1027A0008F20FFF722F8C620FFF71CF80020FFF764
:1027B0001CF8E220FFF719F8E220FFF716F8E220F4
:1027C000FFF713F8BF20FFF70DF8AA20FFF70DF869
:1027D000B020FFF707F80D20FFF707F80020FFF7FC
:1027E00004F80D20FFF701F80020FEF7FEFF11208E
:1027F000FEF7FBFF0020FEF7F8FF1920FEF7F5FFBC
:102800000020FEF7F2FF2120FEF7EFFF0020FEF789
:10281000ECFF2D20FEF7E9FF0020FEF7E6FF3D204C
:10282000FEF7E3FF0020FEF7E0FF5D20FEF7DDFF8F
:102830000020FEF7DAFF5D20FEF7D7FF0020FEF74D
:10284000D4FFB120FEF7CEFF8020FEF7CEFF0020A0
:10285000FEF7CBFF8B20FEF7C8FF0020FEF7C5FF79
:102860009620FEF7C2FF0020FEF7BFFFB220FEF762
:10287000B9FF0020FEF7B9FF0020FEF7B6FF0220E7
:10288000FEF7B3FF0020FEF7B0FF0320FEF7ADFF19
:102890000020FEF7AAFFB320FEF7A4FF0020FEF7FA
:1028A000A4FF0020FEF7A1FF0020FEF79EFF0020FE
:1028B000FEF79BFF0020FEF798FF0020FEF795FF34
:1028C0000020FEF792FF0020FEF78FFF0020FEF7AA
:1028D0008CFF0020FEF789FF0020FEF786FF002016
:1028E000FEF783FF0020FEF780FF0020FEF77DFF4C
:1028F0000020FEF77AFF0020FEF777FF0020FEF7AA
:1029000074FF0020FEF771FF0020FEF76EFF00202D
:10291000FEF76BFF0020FEF768FF0020FEF765FF63
:102920000020FEF762FF0020FEF75FFFB420FEF7F5
:1029300059FF8B20FEF759FF0020FEF756FF962027
:10294000FEF753FF0020FEF750FFA120FEF74DFFDA
:102950000020FEF74AFFB520FEF744FF0220FEF7F5
:1029600044FF0020FEF741FF0320FEF73EFF00205A
:10297000FEF73BFF0420FEF738FF0020FEF735FF8F
:10298000B620FEF72FFF0020FEF72FFF0020FEF7F6
:102990002CFF01E0600A0020B720FEF723FF002093
:1029A000FEF723FF0020FEF720FF3F20FEF71DFF6C
:1029B0000020FEF71AFF5E20FEF717FF0020FEF74B
:1029C00014FF6420FEF711FF0020FEF70EFF8C209D
:1029D000FEF70BFF0020FEF708FFAC20FEF705FF17
:1029E0000020FEF702FFDC20FEF7FFFE0020FEF7CE
:1029F000FCFE7020FEF7F9FE0020FEF7F6FE9020A8
:102A0000FEF7F3FE0020FEF7F0FEEB20FEF7EDFEF2
:102A10000020FEF7EAFEDC20FEF7E7FE0020FEF7CE
:102A2000E4FEB820FEF7DEFE0020FEF7DEFE00200A
:102A3000FEF7DBFE0020FEF7D8FE0020FEF7D5FEF5
:102A40000020FEF7D2FE0020FEF7CFFE0020FEF7AA
:102A5000CCFE0020FEF7C9FEBA20FEF7C3FE2420FC
:102A6000FEF7C3FE0020FEF7C0FE0020FEF7BDFE0D
:102A70000020FEF7BAFEC120FEF7B4FE2020FEF7CC
:102A8000B4FE0020FEF7B1FE5420FEF7AEFE00209B
:102A9000FEF7ABFEFF20FEF7A8FE0020FEF7A5FE26
:102AA000C220FEF79FFE0A20FEF79FFE0020FEF7E1
:102AB0009CFE0420FEF799FE0020FEF796FEC32040
:102AC000FEF790FE3C20FEF790FE0020FEF78DFE04
:102AD0003A20FEF78AFE0020FEF787FE3920FEF737
:102AE00084FE0020FEF781FE3720FEF77EFE0020E8
:102AF000FEF77BFE3C20FEF778FE0020FEF775FE19
:102B00003620FEF772FE0020FEF76FFE3220FEF741
:102B10006CFE0020FEF769FE2F20FEF766FE002007
:102B2000FEF763FE2C20FEF760FE0020FEF75DFE40
:102B30002920FEF75AFE0020FEF757FE2620FEF75A
:102B400054FE0020FEF751FE2420FEF74EFE00202A
:102B5000FEF74BFE2420FEF748FE0020FEF745FE60
:102B60002320FEF742FE0020FEF73FFE3C20FEF74A
:102B70003CFE0020FEF739FE3620FEF736FE002030
:102B8000FEF733FE3220FEF730FE0020FEF72DFE6A
:102B90002F20FEF72AFE0020FEF727FE2C20FEF74E
:102BA00024FE0020FEF721FE2920FEF71EFE002055
:102BB000FEF71BFE2620FEF718FE0020FEF715FE8E
:102BC0002420FEF712FE0020FEF70FFE2420FEF761
:102BD0000CFE0020FEF709FE2320FEF706FE002073
:102BE000FEF703FEC420FEF7FDFD6220FEF7FDFDAB
:102BF0000020FEF7FAFD0520FEF7F7FD0020FEF7A6
:102C0000F4FD8420FEF7F1FD0020FEF7EEFDF0203C
:102C1000FEF7EBFD0020FEF7E8FD1820FEF7E5FDCE
:102C20000020FEF7E2FDA420FEF7DFFD0020FEF706
:102C3000DCFD1820FEF7D9FD0020FEF7D6FD502060
:102C4000FEF7D3FD0020FEF7D0FD0C20FEF7CDFDF2
:102C50000020FEF7CAFD1720FEF7C7FD0020FEF793
:102C6000C4FD9520FEF7C1FD0020FEF7BEFDF32058
:102C7000FEF7BBFD0020FEF7B8FDE620FEF7B5FD30
:102C80000020FEF7B2FDC520FEF7ACFD3220FEF7B6
:102C9000ACFD0020FEF7A9FD4420FEF7A6FD0020B4
:102CA000FEF7A3FD6520FEF7A0FD0020FEF79DFDC9
:102CB0007620FEF79AFD0020FEF797FD8820FEF7AC
:102CC00094FD0020FEF791FDC620FEF78BFD20202D
:102CD000FEF78BFD0020FEF788FD1720FEF785FD2F
:102CE0000020FEF782FD0120FEF77FFD0020FEF7A9
:102CF0007CFDC720FEF776FD0020FEF776FD002064
:102D0000FEF773FD0020FEF770FD0020FEF76DFD5D
:102D1000C820FEF767FD0020FEF767FD0020FEF7E4
:102D200064FD0020FEF761FD0020FEF75EFDC92076
:102D3000FEF758FD0020FEF758FD0020FEF755FD78
:102D40000020FEF752FD0020FEF74FFD0020FEF7A9
:102D50004CFD0020FEF749FD0020FEF746FD002057
:102D6000FEF743FD0020FEF740FD0020FEF73DFD8D
:102D70000020FEF73AFD0020FEF737FD0020FEF7A9
:102D800034FD0020FEF731FD0020FEF72EFD00206F
:102D9000FEF72BFDE020FEF725FD1620FEF725FDB2
:102DA0000020FEF722FD1C20FEF71FFD0020FEF78D
:102DB0001CFD2120FEF719FD0020FEF716FD362030
:102DC000FEF713FD0020FEF710FD4620FEF70DFD77
:102DD0000020FEF70AFD5220FEF707FD0020FEF757
:102DE00004FD6420FEF701FD0020FEF7FEFC7A20C2
:102DF000FEF7FBFC0020FEF7F8FC8B20FEF7F5FC4D
:102E00000020FEF7F2FC9920FEF7EFFC0020FEF711
:102E1000ECFCA820FEF7E9FC0020FEF7E6FCB92058
:102E2000FEF7E3FC0020FEF7E0FCC420FEF7DDFC2B
:102E30000020FEF7DAFCCA20FEF7D7FC0020FEF7E0
:102E4000D4FCD220FEF7D1FC0020FEF7CEFCD92026
:102E5000FEF7CBFC0020FEF7C8FCE020FEF7C5FC27
:102E60000020FEF7C2FCF320FEF7BFFC0020FEF7B7
:102E7000BCFCE120FEF7B6FC1620FEF7B6FC0020F5
:102E8000FEF7B3FC1C20FEF7B0FC0020FEF7ADFC03
:102E90002220FEF7AAFC0020FEF7A7FC3620FEF752
:102EA000A4FC0020FEF7A1FC4520FEF79EFC0020BC
:102EB000FEF79BFC5220FEF798FC0020FEF795FCE5
:102EC0006420FEF792FC0020FEF78FFC7A20FEF7CC
:102ED0008CFC0020FEF789FC8B20FEF786FC00208E
:102EE000FEF783FC9920FEF780FC0020FEF77DFCB6
:102EF000A820FEF77AFC0020FEF777FCB920FEF749
:102F000074FC0020FEF771FCC420FEF76EFC00206C
:102F1000FEF76BFCCA20FEF768FC0020FEF765FC9C
:102F2000D220FEF762FC0020FEF75FFCD820FEF7FF
:102F30005CFC0020FEF759FCE020FEF756FC002068
:102F4000FEF753FCF320FEF750FC0020FEF74DFC8B
:102F5000E220FEF747FC0520FEF747FC0020FEF7C5
:102F600044FC0B20FEF741FC0020FEF73EFC1B203A
:102F7000FEF73BFC0020FEF738FC3420FEF735FC62
:102F80000020FEF732FC4420FEF72FFC0020FEF765
:102F90002CFC4F20FEF729FC0020FEF726FC6120C8
:102FA000FEF723FC0020FEF720FC7920FEF71DFC35
:102FB0000020FEF71AFC8820FEF717FC0020FEF721
:102FC00014FC9720FEF711FC0020FEF70EFCA62053
:102FD000FEF70BFC0020FEF708FCB720FEF705FC0F
:102FE0000020FEF702FCC220FEF7FFFB0020FEF7E8
:102FF000FCFBC720FEF7F9FB0020FEF7F6FBD12013
:10300000FEF7F3FB0020FEF7F0FBD620FEF7EDFB0A
:103010000020FEF7EAFBDD20FEF7E7FB0020FEF7CD
:10302000E4FBF320FEF7E1FB0020FEF7DEFBE320EC
:10303000FEF7D8FB0520FEF7D8FB0020FEF7D5FBF6
:103040000A20FEF7D2FB0020FEF7CFFB1C20FEF784
:10305000CCFB0020FEF7C9FB3320FEF7C6FB0020A7
:10306000FEF7C3FB4420FEF7C0FB0020FEF7BDFBCC
:103070005020FEF7BAFB0020FEF7B7FB6220FEF7F8
:10308000B4FB0020FEF7B1FB7820FEF7AEFB00207A
:10309000FEF7ABFB8820FEF7A8FB0020FEF7A5FBA0
:1030A0009720FEF7A2FB0020FEF79FFBA620FEF76D
:1030B0009CFB0020FEF799FBB720FEF796FB002053
:1030C000FEF793FBC220FEF790FB0020FEF78DFB7E
:1030D000C720FEF78AFB0020FEF787FBD120FEF712
:1030E00084FB0020FEF781FBD520FEF77EFB00204D
:1030F000FEF77BFBDD20FEF778FB0020FEF775FB7B
:10310000F320FEF772FB0020FEF76FFBE420FEF7D2
:1031100069FB0120FEF769FB0020FEF766FB01203A
:10312000FEF763FB0020FEF760FB0220FEF75DFB6D
:103130000020FEF75AFB2A20FEF757FB0020FEF77F
:1031400054FB3C20FEF751FB0020FEF74EFB4B20CA
:10315000FEF74BFB0020FEF748FB5D20FEF745FB2A
:103160000020FEF742FB7420FEF73FFB0020FEF735
:103170003CFB8420FEF739FB0020FEF736FB932052
:10318000FEF733FB0020FEF730FBA220FEF72DFBFD
:103190000020FEF72AFBB320FEF727FB0020FEF7F6
:1031A00024FBBE20FEF721FB0020FEF71EFBC420FF
:1031B000FEF71BFB0020FEF718FBCD20FEF715FBEA
:1031C0000020FEF712FBD320FEF70FFB0020FEF7D6
:1031D0000CFBDD20FEF709FB0020FEF706FBF320C9
:1031E000FEF703FB0020FEF700FBE520FEF7FAFAEE
:1031F0000020FEF7FAFA0020FEF7F7FA0020FEF7AB
:10320000F4FA0020FEF7F1FA0220FEF7EEFA0020B1
:10321000FEF7EBFA2920FEF7E8FA0020FEF7E5FAC0
:103220003C20FEF7E2FA0020FEF7DFFA4B20FEF723
:10323000DCFA0020FEF7D9FA5D20FEF7D6FA00206E
:10324000FEF7D3FA7420FEF7D0FA0020FEF7CDFA8D
:103250008420FEF7CAFA0020FEF7C7FA9320FEF793
:10326000C4FA0020FEF7C1FAA220FEF7BEFA002041
:10327000FEF7BBFAB320FEF7B8FA0020FEF7B5FA66
:10328000BE20FEF7B2FA0020FEF7AFFAC420FEF728
:10329000ACFA0020FEF7A9FACD20FEF7A6FA00202E
:1032A000FEF7A3FAD320FEF7A0FA0020FEF79DFA5E
:1032B000DC20FEF79AFA0020FEF797FAF320FEF7DB
:1032C00094FA0020FEF791FAE620FEF78BFA11201F
:1032D000FEF78BFA0020FEF788FA3420FEF785FA15
:1032E0000020FEF782FA5620FEF77FFA0020FEF754
:1032F0007CFA7620FEF779FA0020FEF776FA77203E
:10330000FEF773FA0020FEF770FA6620FEF76DFAFA
:103310000020FEF76AFA8820FEF767FA0020FEF721
:1033200064FA9920FEF761FA0020FEF75EFABB20EE
:10333000FEF75BFA0020FEF758FA9920FEF755FADF
:103340000020FEF752FA6620FEF74FFA0020FEF743
:103350004CFA5520FEF749FA0020FEF746FA5520B0
:10336000FEF743FA0020FEF740FA4520FEF73DFA4B
:103370000020FEF73AFA4320FEF737FA0020FEF766
:1033800034FA4420FEF731FA0020FEF72EFAE72047
:10339000FEF728FA3220FEF728FA0020FEF725FA79
:1033A0005520FEF722FA0020FEF71FFA7620FEF7DE
:1033B0001CFA0020FEF719FA6620FEF716FA002024
:1033C000FEF713FA6720FEF710FA0020FEF70DFA59
:1033D0006720FEF70AFA0020FEF707FA8720FEF7BB
:1033E00004FA0020FEF701FA9920FEF7FEF900200A
:1033F000FEF7FBF9BB20FEF7F8F90020FEF7F5F920
:103400009920FEF7F2F90020FEF7EFF97720FEF79A
:10341000ECF90020FEF7E9F94420FEF7E6F9002078
:10342000FEF7E3F95620FEF7E0F90020FEF7DDF99C
:103430002320FEF7DAF90020FEF7D7F93320FEF754
:10344000D4F90020FEF7D1F94520FEF7CEF900208F
:10345000FEF7CBF9E820FEF7C5F90020FEF7C5F925
:103460000020FEF7C2F99920FEF7BFF90020FEF711
:10347000BCF98720FEF7B9F90020FEF7B6F98820DD
:10348000FEF7B3F90020FEF7B0F97720FEF7ADF9AB
:103490000020FEF7AAF96620FEF7A7F90020FEF744
:1034A000A4F98820FEF7A1F90020FEF79EF9AA20D2
:1034B000FEF79BF90020FEF798F9BB20FEF795F97F
:1034C0000020FEF792F99920FEF78FF90020FEF711
:1034D0008CF96620FEF789F90020FEF786F9552061
:1034E000FEF783F90020FEF780F95520FEF77DF9FD
:1034F0000020FEF77AF94420FEF777F90020FEF766
:1035000074F94420FEF771F90020FEF76EF955209A
:10351000FEF76BF90020FEF768F9E920FEF762F983
:10352000AA20FEF762F90020FEF75FF90020FEF7FF
:103530005CF90020FEF759F90020FEF753F9AA20A4
:10354000FEF753F9CF20FEF74DF90020FEF74DF9B5
:103550000020FEF74AF90020FEF747F90020FEF7A9
:1035600044F90020FEF741F90020FEF73EF9002063
:10357000FEF73BF90020FEF738F90020FEF735F999
:103580000020FEF732F90020FEF72FF90020FEF7A9
:103590002CF90020FEF729F90020FEF726F900207B
:1035A000FEF723F90020FEF720F90020FEF71DF9B1
:1035B000F020FEF717F90020FEF717F95020FEF76C
:1035C00014F90020FEF711F90020FEF70EF9002093
:1035D000FEF70BF9F320FEF705F90020FEF705F9D9
:1035E000F920FEF7FFF80620FEF7FFF81020FEF79F
:1035F000FCF82920FEF7F9F80020FEF7F6F83A204B
:10360000FEF7F0F85520FEF7F0F81120FEF7EAF883
:10361000642003F082FB2920FEF7E4F83520FEF752
:10362000E1F80020FEF7E1F85120FEF7DBF8FF207B
:10363000FEF7DBF85320FEF7D5F82C20FEF7D5F87F
:103640005520FEF7CFF88220FEF7CFF82C20FEF7AA
:10365000C9F801F048B8FE48808845F21051884208
:103660007ED155214FF47040FEF7CBF8AA214FF2DE
:103670000100FEF7C6F852214FF20200FEF7C1F832
:1036800008214FF20300FEF7BCF801214FF20400BD
:10369000FEF7B7F80D214FF43040FEF7B2F80D21D8
:1036A0004BF20100FEF7ADF80D214BF20200FEF7E0
:1036B000A8F834214FF43640FEF7A3F834214BF23A
:1036C0000160FEF79EF834214BF20260FEF799F894
:1036D0000D214FF43140FEF794F80D214BF201100B
:1036E000FEF78FF80D214BF20210FEF78AF8342115
:1036F0004FF43740FEF785F834214BF20170FEF7A6
:1037000080F834214BF20270FEF77BF800214FF471
:103710003240FEF776F800214BF20120FEF771F8F7
:1037200000214BF20220FEF76CF824214FF43840C0
:10373000FEF767F824214BF60100FEF762F824211A
:103740004BF60200FEF75DF801214FF43F40FEF713
:1037500058F80F214FF43340FEF753F80F2100E0E3
:10376000FEE34BF20130FEF74CF80F214BF2023032
:10377000FEF747F834214FF43940FEF742F8342180
:103780004BF60110FEF73DF834214BF60210FEF720
:1037900038F808214FF43540FEF733F808214BF292
:1037A0000150FEF72EF808214BF20250FEF729F8DF
:1037B00003214FF44240FEF724F824214FF43A400D
:1037C000FEF71FF824214BF60120FEF71AF82421FA
:1037D0004BF60220FEF715F800214FF43C40FEF7AF
:1037E00010F878214BF60140FEF70BF800214BF65C
:1037F0000240FEF706F800214FF43D40FEF701F8C5
:1038000078214BF60150FDF7FCFF00214BF60250EA
:10381000FDF7F7FF00214FF43E40FDF7F2FF642172
:103820004BF60160FDF7EDFF00214FF45140FDF72D
:10383000E8FF33214DF20110FDF7E3FF00214DF2C7
:103840000210FDF7DEFF34214DF20310FDF7D9FF22
:1038500000214DF20410FDF7D4FF3A214DF205107E
:10386000FDF7CFFF00214DF20610FDF7CAFF4A21F8
:103870004DF20710FDF7C5FF00214DF20810FDF7CE
:10388000C0FF5C214DF20910FDF7BBFF00214DF296
:103890000A10FDF7B6FF81214DF20B10FDF7B1FFC5
:1038A00000214DF20C10FDF7ACFFA6214DF20D10DA
:1038B000FDF7A7FF00214DF20E10FDF7A2FFE52155
:1038C0004DF20F10FDF79DFF01214DF21010FDF795
:1038D00098FF13214DF21110FDF793FF01214DF2D6
:1038E0001210FDF78EFF54214DF21310FDF789FFE2
:1038F00001214DF21410FDF784FF82214DF21510C5
:10390000FDF77FFF01214DF21610FDF77AFFCA2166
:103910004DF21710FDF775FF02214DF21810FDF75B
:1039200070FF00214DF21910FDF76BFF02214DF2DF
:103930001A10FDF766FF01214DF21B10FDF761FF24
:1039400002214DF21C10FDF75CFF34214DF21D10D9
:10395000FDF757FF02214DF21E10FDF752FF6721C0
:103960004DF21F10FDF74DFF02214DF22010FDF723
:1039700048FF84214DF22110FDF743FF02214DF253
:103980002210FDF73EFFA4214DF22310FDF739FF71
:1039900002214DF22410FDF734FFB7214DF225101E
:1039A000FDF72FFF02214DF22610FDF72AFFCF2150
:1039B0004DF22710FDF725FF02214DF22810FDF7EB
:1039C00020FFDE214DF22910FDF71BFF02214DF2F1
:1039D0002A10FDF716FFF2214DF22B10FDF711FF13
:1039E00002214DF22C10FDF70CFFFE214DF22D109F
:1039F000FDF707FF03214DF22E10FDF702FF102106
:103A00004DF22F10FDF7FDFE03214DF23010FDF7B2
:103A1000F8FE33214DF23110FDF7F3FE03214DF294
:103A20003210FDF7EEFE6D214DF23310FDF7E9FE89
:103A300000214FF45240FDF7E4FE33214DF2012006
:103A4000FDF7DFFE00214DF20220FDF7DAFE01E076
:103A5000600A002034214DF20320FDF7D2FE002140
:103A60004DF20420FDF7CDFE3A214DF20520FDF781
:103A7000C8FE00214DF20620FDF7C3FE4A214DF29B
:103A80000720FDF7BEFE00214DF20820FDF7B9FE2C
:103A90005C214DF20920FDF7B4FE00214DF20A2011
:103AA000FDF7AFFE81214DF20B20FDF7AAFE0021AC
:103AB0004DF20C20FDF7A5FEA6214DF20D20FDF7DD
:103AC000A0FE00214DF20E20FDF79BFEE5214DF2F8
:103AD0000F20FDF796FE01214DF21020FDF791FE1B
:103AE00013214DF21120FDF78CFE01214DF2122021
:103AF000FDF787FE54214DF21320FDF782FE0121D0
:103B00004DF21420FDF77DFE82214DF21520FDF7C8
:103B100078FE01214DF21620FDF773FECA214DF209
:103B20001720FDF76EFE02214DF21820FDF769FE09
:103B300000214DF21920FDF764FE02214DF21A20FA
:103B4000FDF75FFE01214DF21B20FDF75AFE022119
:103B50004DF21C20FDF755FE34214DF21D20FDF7DE
:103B600050FE02214DF21E20FDF74BFE67214DF263
:103B70001F20FDF746FE02214DF22020FDF741FEF9
:103B800084214DF22120FDF73CFE02214DF222203E
:103B9000FDF737FEA4214DF22320FDF732FE02216E
:103BA0004DF22420FDF72DFEB7214DF22520FDF723
:103BB00028FE02214DF22620FDF723FECF214DF2F3
:103BC0002720FDF71EFE02214DF22820FDF719FEE9
:103BD000DE214DF22920FDF714FE02214DF22A20AC
:103BE000FDF70FFEF2214DF22B20FDF70AFE022118
:103BF0004DF22C20FDF705FEFE214DF22D20FDF7A4
:103C000000FE03214DF22E20FDF7FBFD10214DF2A9
:103C10002F20FDF7F6FD03214DF23020FDF7F1FDD9
:103C200033214DF23120FDF7ECFD03214DF232201E
:103C3000FDF7E7FD6D214DF23320FDF7E2FD002198
:103C40004FF45340FDF7DDFD33214DF20130FDF718
:103C5000D8FD00214DF20230FDF7D3FD34214DF2A5
:103C60000330FDF7CEFD00214DF20430FDF7C9FD14
:103C70003A214DF20530FDF7C4FD00214DF206302A
:103C8000FDF7BFFD4A214DF20730FDF7BAFD0021D7
:103C90004DF20830FDF7B5FD5C214DF20930FDF71E
:103CA000B0FD00214DF20A30FDF7ABFD81214DF250
:103CB0000B30FDF7A6FD00214DF20C30FDF7A1FD04
:103CC000A6214DF20D30FDF79CFD00214DF20E3086
:103CD000FDF797FDE5214DF20F30FDF792FD012133
:103CE0004DF21030FDF78DFD13214DF21130FDF72F
:103CF00088FD01214DF21230FDF783FD54214DF274
:103D00001330FDF77EFD01214DF21430FDF779FDF2
:103D100082214DF21530FDF774FD01214DF2163070
:103D2000FDF76FFDCA214DF21730FDF76AFD022144
:103D30004DF21830FDF765FD00214DF21930FDF709
:103D400060FD02214DF21A30FDF75BFD01214DF2BD
:103D50001B30FDF756FD02214DF21C30FDF751FDE1
:103D600034214DF21D30FDF74CFD02214DF21E3085
:103D7000FDF747FD67214DF21F30FDF742FD02219F
:103D80004DF22030FDF73DFD84214DF22130FDF74D
:103D900038FD02214DF22230FDF733FDA4214DF212
:103DA0002330FDF72EFD02214DF22430FDF729FDD1
:103DB000B7214DF22530FDF724FD02214DF22630CA
:103DC000FDF71FFDCF214DF22730FDF71AFD02212F
:103DD0004DF22830FDF715FDDE214DF22930FDF7BB
:103DE00010FD02214DF22A30FDF70BFDF2214DF2BC
:103DF0002B30FDF706FD02214DF22C30FDF701FDC1
:103E0000FE214DF22D30FDF7FCFC03214DF22E304A
:103E1000FDF7F7FC10214DF22F30FDF7F2FC0321E6
:103E20004DF23030FDF7EDFC33214DF23130FDF72E
:103E3000E8FC03214DF23230FDF7E3FC6D214DF239
:103E40003330FDF7DEFC00214FF45440FDF7D9FC80
:103E500033214DF20140FDF7D4FC00214DF2024028
:103E6000FDF7CFFC34214DF20340FDF7CAFC0021E1
:103E70004DF20440FDF7C5FC3A214DF20540FDF737
:103E8000C0FC00214DF20640FDF7BBFC4A214DF27B
:103E90000740FDF7B6FC00214DF20840FDF7B1FCEC
:103EA0005C214DF20940FDF7ACFC00214DF20A40C7
:103EB000FDF7A7FC81214DF20B40FDF7A2FC00218C
:103EC0004DF20C40FDF79DFCA6214DF20D40FDF793
:103ED00098FC00214DF20E40FDF793FCE5214DF2D8
:103EE0000F40FDF78EFC01214DF21040FDF789FCDB
:103EF00013214DF21140FDF784FC01214DF21240D7
:103F0000FDF77FFC54214DF21340FDF77AFC0121AF
:103F10004DF21440FDF775FC82214DF21540FDF77E
:103F200070FC01214DF21640FDF76BFCCA214DF2E9
:103F30001740FDF766FC02214DF21840FDF761FCC9
:103F400000214DF21940FDF75CFC02214DF21A40B0
:103F5000FDF757FC01214DF21B40FDF752FC00E03C
:103F600003E302214DF21C40FDF74BFC34214DF2DE
:103F70001D40FDF746FC02214DF21E40FDF741FCBD
:103F800067214DF21F40FDF73CFC02214DF220401D
:103F9000FDF737FC84214DF22140FDF732FC022170
:103FA0004DF22240FDF72DFCA4214DF22340FDF7F8
:103FB00028FC02214DF22440FDF723FCB7214DF2ED
:103FC0002540FDF71EFC02214DF22640FDF719FCAD
:103FD000CF214DF22740FDF714FC02214DF228407D
:103FE000FDF70FFCDE214DF22940FDF70AFC02210E
:103FF0004DF22A40FDF705FCF2214DF22B40FDF772
:1040000000FC02214DF22C40FDF7FBFBFE214DF29E
:104010002D40FDF7F6FB03214DF22E40FDF7F1FB9D
:1040200010214DF22F40FDF7ECFB03214DF2304003
:10403000FDF7E7FB33214DF23140FDF7E2FB0321B1
:104040004DF23240FDF7DDFB6D214DF23340FDF7BF
:10405000D8FB00214FF45540FDF7D3FB33214DF23F
:104060000150FDF7CEFB00214DF20250FDF7C9FBD8
:1040700034214DF20350FDF7C4FB00214DF20450F2
:10408000FDF7BFFB3A214DF20550FDF7BAFB0021C9
:104090004DF20650FDF7B5FB4A214DF20750FDF7F2
:1040A000B0FB00214DF20850FDF7ABFB5C214DF257
:1040B0000950FDF7A6FB00214DF20A50FDF7A1FBC8
:1040C00081214DF20B50FDF79CFB00214DF20C506D
:1040D000FDF797FBA6214DF20D50FDF792FB002155
:1040E0004DF20E50FDF78DFBE5214DF20F50FDF71F
:1040F00088FB01214DF21050FDF783FB13214DF297
:104100001150FDF77EFB01214DF21250FDF779FBB6
:1041100054214DF21350FDF774FB01214DF2145060
:10412000FDF76FFB82214DF21550FDF76AFB01216F
:104130004DF21650FDF765FBCA214DF21750FDF701
:1041400060FB02214DF21850FDF75BFB00214DF2A0
:104150001950FDF756FB02214DF21A50FDF751FBA5
:1041600001214DF21B50FDF74CFB02214DF21C507A
:10417000FDF747FB34214DF21D50FDF742FB0221B4
:104180004DF21E50FDF73DFB67214DF21F50FDF72C
:1041900038FB02214DF22050FDF733FB84214DF214
:1041A0002150FDF72EFB02214DF22250FDF729FB95
:1041B000A4214DF22350FDF724FB02214DF224509F
:1041C000FDF71FFBB7214DF22550FDF71AFB022129
:1041D0004DF22650FDF715FBCF214DF22750FDF78C
:1041E00010FB02214DF22850FDF70BFBDE214DF2B2
:1041F0002950FDF706FB02214DF22A50FDF701FB85
:10420000F2214DF22B50FDF7FCFA02214DF22C5019
:10421000FDF7F7FAFE214DF22D50FDF7F2FA0321DA
:104220004DF22E50FDF7EDFA10214DF22F50FDF713
:10423000E8FA03214DF23050FDF7E3FA33214DF255
:104240003150FDF7DEFA03214DF23250FDF7D9FA75
:104250006D214DF23350FDF7D4FA00214FF4564052
:10426000FDF7CFFA33214DF20160FDF7CAFA0021C4
:104270004DF20260FDF7C5FA34214DF20360FDF7FF
:10428000C0FA00214DF20460FDF7BBFA3A214DF26D
:104290000560FDF7B6FA00214DF20660FDF7B1FAB0
:1042A0004A214DF20760FDF7ACFA00214DF208609B
:1042B000FDF7A7FA5C214DF20960FDF7A2FA002193
:1042C0004DF20A60FDF79DFA81214DF20B60FDF77A
:1042D00098FA00214DF20C60FDF793FAA6214DF2F9
:1042E0000D60FDF78EFA00214DF20E60FDF789FAA0
:1042F000E5214DF20F60FDF784FA01214DF21060C7
:10430000FDF77FFA13214DF21160FDF77AFA0121D2
:104310004DF21260FDF775FA54214DF21360FDF76E
:1043200070FA01214DF21460FDF76BFA82214DF213
:104330001560FDF766FA01214DF21660FDF761FA8E
:10434000CA214DF21760FDF75CFA02214DF21860A8
:10435000FDF757FA00214DF21960FDF752FA0221DC
:104360004DF21A60FDF74DFA01214DF21B60FDF789
:1043700048FA02214DF21C60FDF743FA34214DF258
:104380001D60FDF73EFA02214DF21E60FDF739FA7D
:1043900067214DF21F60FDF734FA02214DF22060D3
:1043A000FDF72FFA84214DF22160FDF72AFA022150
:1043B0004DF22260FDF725FAA4214DF22360FDF7AE
:1043C00020FA02214DF22460FDF71BFAB7214DF2CD
:1043D0002560FDF716FA02214DF22660FDF711FA6D
:1043E000CF214DF22760FDF70CFA02214DF2286033
:1043F000FDF707FADE214DF22960FDF702FA0221EE
:104400004DF22A60FDF7FDF9F2214DF22B60FDF728
:10441000F8F902214DF22C60FDF7F3F9FE214DF27F
:104420002D60FDF7EEF903214DF22E60FDF7E9F95D
:1044300010214DF22F60FDF7E4F903214DF23060B9
:10444000FDF7DFF933214DF23160FDF7DAF9032191
:104450004DF23260FDF7D5F96D214DF23360FDF775
:10446000D0F955214FF47040FDF7CBF9AA214FF256
:104470000100FDF7C6F952214FF20200FDF7C1F924
:1044800008214FF20300FDF7BCF900214FF20400B0
:10449000FDF7B7F9CC214FF43140FDF7B2F9002117
:1044A0004BF20110FDF7ADF905214FF43640FDF751
:1044B000A8F970214FF43740FDF7A3F970214BF2B2
:1044C0000170FDF79EF901214FF43840FDF799F98D
:1044D00003214BF60100FDF794F903214BF602008E
:1044E000FDF78FF903214BF60300FDF78AF902214E
:1044F0004FF43C40FDF785F900214BF60140FDF7F4
:1045000080F900214BF60240FDF77BF9D0214FF4F2
:104510004940FDF776F902214CF60110FDF771F9DB
:1045200050214CF60210FDF76CF950214CF60310A7
:10453000FDF767F950214CF60410FDF762F90021F0
:104540004FF45450FDF75DF955214FF46850FDF7D5
:1045500058F94FF48850FDF745F9782002F0B9FB7F
:104560004FF42450FDF73EF9BDE0FE48808841F647
:1045700063118842F8D1E220FDF734F91D20FDF7E0
:1045800034F90220FDF731F90420FDF72EF96420FB
:1045900002F09FFBE020FDF725F90120FDF725F94A
:1045A0000A2002F0BAFBE020FDF71CF90320FDF71A
:1045B0001CF90C2002F0B1FB0120FDF713F90A20D1
:1045C00002F0ABFBE620FDF70DF92F20FDF70DF90A
:1045D000FF20FDF70AF9FF20FDF707F9B020FDF7EE
:1045E00001F92020FDF701F90020FDF7FEF8032076
:1045F000FDF7FBF840F21F30FDF7F7F80120FDF75B
:10460000F4F840F2DF10FDF7F0F80020FDF7EDF8C8
:10461000B420FDF7E7F80420FDF7E7F840F21F406B
:10462000FDF7E3F80020FDF7E0F82E20FDF7DDF8B8
:104630000020FDF7DAF80020FDF7D7F80020FDF79D
:10464000D4F80020FDF7D1F8B620FDF7CBF8022012
:10465000FDF7CBF84FF40370FDF7C7F80020FDF726
:10466000C4F81720FDF7C1F81520FDF7BEF80020AB
:10467000FDF7BBF80020FDF7B8F8F020FDF7B2F821
:104680000320FDF7B2F82920FDF7ACF8D020FDF7A4
:10469000A9F80020FDF7A9F8BE20FDF7A3F8052032
:1046A000FDF7A3F8FE20FDF7A0F80120FDF79DF827
:1046B0000020FDF79AF80020FDF797F80020FDF79D
:1046C00094F8B820FDF78EF80320FDF78EF801204E
:1046D000FDF78BF8BA20FDF785F80120FDF785F886
:1046E0006420FDF747FB0020FDF76CFB01209E498D
:1046F00008604FF6FF70FDF7B0FC1FB000BD2DE95C
:10470000F04F05460E4617469846DDF824A04FF0B8
:10471000000B781B401C1FFA80FB344613E0214637
:104720002846FDF79BF8FDF77CF84FF0000906E0FE
:104730008E48A0F800A009F101001FFA80F9D945C0
:10474000F6DB601C84B24445E9DDBDE8F08F2DE95D
:10475000F84F07460D4690469946DDF828B0A8EB7D
:104760000700401C1FFA80FAA9EB0500401C80B22C
:104770000090002414E0281981B23846FDF76EF845
:10478000FDF74FF8002607E004FB0A603BF8100035
:1047900076490880701C86B25645F5DB601C84B2F1
:1047A00000988442E7DBBDE8F88F2DE9FF4F84B025
:1047B00081468A460020039002900698A0EB0905E6
:1047C0000798A0EB0A06CDF80490CDF800A0002DC4
:1047D00001DD012705E00DB9002702E04FF0FF37AA
:1047E0006D42002E02DD4FF0010806E016B94FF0D1
:1047F000000802E04FF0FF387642B54201DD2C465A
:1048000000E034464FF0000B21E0009A91B2019A8B
:1048100090B2FDF72CFA0398284403900298304494
:1048200002900398A04205DD0398001B03900198B5
:10483000384401900298A04205DD0298001B0290C6
:104840000098404400900BF101001FFA80FB601CAF
:104850008345DADD08B0BDE8F08FF0B504460D46BB
:1048600016461F462B46324629462046FFF79DFF37
:104870003B46224629462046FFF797FF3B463246F5
:1048800039462046FFF791FF3B46324629463046DF
:10489000FFF78BFFF0BD2DE9F04306460F4690462B
:1048A000002445460320A0EB48093CE07A1B91B266
:1048B000321990B2FDF7DBF93A1B91B2721990B23E
:1048C000FDF7D5F93A1991B2721990B2FDF7CFF907
:1048D0007A1991B2321990B2FDF7C9F97A1991B2E9
:1048E000321B90B2FDF7C3F93A1991B2721B90B224
:1048F000FDF7BDF97A1B91B2321B90B2FDF7B7F903
:104900003A1B91B2721B90B2FDF7B1F9641CB9F178
:10491000000F03DAA000801D814404E0601B8000CA
:104920000A3081446D1EAC42C0DDBDE8F0832DE944
:10493000F84F80460E4617461C46B3462046E317FE
:1049400004EB5373DB1021464FEAE47C04EB5C7C00
:104950004FEAEC0CA4EBCC0CBCF1000F08D04FF0EC
:10496000010C07E0600A0020808121420008006CF1
:104970004FF0000C6344224604EBD27C4FEA6C0CEF
:1049800003FB0CF3DBB20093A7F12000C7B20025B4
:1049900056E00C2C07D107EB47009F4901EB800044
:1049A00010F8059013E0102C05D19C4800EB07107F
:1049B00010F805900BE0182C07D107EBC7009849B9
:1049C00001EB800010F8059001E0BDE8F88F4FF092
:1049D000000A2FE009F0800030B192480288314689
:1049E0004046FDF752F907E00A9828B98E48028838
:1049F00031464046FDF749F94FEA49604FEA1069F0
:104A0000701C86B289484088B04200DCDDE7A6EB26
:104A10000B00A0420AD15E4608F101001FFA80F89F
:104A200082480088404500DCCFE706E00AF101003B
:104A300000F0FF0ABAF1080FCCDB00BF681CC5B25A
:104A400000988542A5DB00BFBFE710B502460120F4
:104A500000E050430B1EA1F10104E1B2F9D110BDF9
:104A60002DE9FF4F81B0074691461E460E9D4FF03F
:104A7000000A002439E0301B401EC1B20A20FFF7B3
:104A8000E4FFB9FBF0F00A21B0FBF1F201FB1208E0
:104A9000BAF1000F16D1701EA04213DDB8F1000F5D
:104AA0000ED10020AB4605EBDB71491001FB047110
:104AB000009088B22B4620220299FFF738FF12E0BF
:104AC0004FF0010A0020AB4605EBDB71491001FBFA
:104AD0000471009088B208F13001CAB22B460299E5
:104AE000FFF725FF00BF601CC4B2B442C3DB05B0B2
:104AF000BDE8F08F2DE9FF4F82B0064692461F4673
:104B0000DDE90F480020019000254DE0781B401E94
:104B1000C1B20A20FFF799FFBAFBF0F00A21B0FBFF
:104B2000F1F201FB1209019850BB781EA84227DD63
:104B3000B9F1000F22D108F0800078B108F001002F
:104B4000A34604EBDB71491001FB0561009088B2BC
:104B5000234630220399FFF7EAFE0EE008F0010039
:104B6000A34604EBDB71491001FB0561009088B29C
:104B7000234620220399FFF7DAFE13E0012001907B
:104B800008F00100A34604EBDB71491001FB05614D
:104B9000009088B209F13001CAB223460399FFF7A9
:104BA000C6FE00BF681CC5B2BD42AFDB06B0BDE8A3
:104BB000F08F2DE9F84704460D4690469946DDE909
:104BC000096704F0FF0A08EB04001FFA80F809EBFC
:104BD00005001FFA80F916E0444502DB5446A81987
:104BE00085B24D4500DB14E0002000903A78334652
:104BF00029462046FFF79BFE304606EBD07104EBBA
:104C000061018CB27F1C38787E2802DC387820283D
:104C1000E2DA00BFBDE8F88784370208F83B0208F3
:104C2000E84102084000002042000020600A002005
:104C300008B50121802003F019F9F820ADF8000033
:104C400010208DF8030003208DF802006946F74814
:104C500002F050FEF821F54802F0F9FE08BD08B553
:104C60000121802003F002F94FF48070ADF80000BC
:104C700004208DF8030003208DF802006946EB48FC
:104C800002F038FE4FF48071E84802F0E2FE08BD01
:104C900010B50821E54802F0DAFE1021E34802F0E1
:104CA000D6FE2021E14802F0D2FE4021DF4802F08A
:104CB000CEFE8021DD4802F0CAFE10BD10B50821ED
:104CC000DA4802F0C6FE1021D84802F0C0FE2021CA
:104CD000D64802F0BCFE4021D44802F0B8FE802144
:104CE000D24802F0B4FE10BD10B50821CF4802F042
:104CF000AEFE1021CD4802F0ACFE2021CB4802F0E0
:104D0000A6FE4021C94802F0A2FE8021C74802F059
:104D10009EFE10BD10B50821C44802F09AFE102175
:104D2000C24802F096FE2021C04802F090FE4021C9
:104D3000BE4802F08CFE8021BC4802F088FE10BD07
:104D400010B50821B94802F082FE1021B74802F0E0
:104D50007EFE2021B54802F07CFE4021B34802F0DF
:104D600076FE8021B14802F072FE10BD10B5082118
:104D7000AE4802F06EFE1021AC4802F068FE202121
:104D8000AA4802F066FE4021A84802F060FE802199
:104D9000A64802F05CFE10BD10B50821A34802F041
:104DA00056FE1021A14802F054FE20219F4802F037
:104DB00050FE40219D4802F04AFE80219B4802F0AF
:104DC00046FE10BD10B50821984802F042FE1021A1
:104DD000964802F03EFE2021944802F03AFE40211F
:104DE000924802F034FE8021904802F030FE10BD5F
:104DF00010B508218D4802F02AFE10218B4802F0E0
:104E000026FE2021894802F022FE4021874802F038
:104E100020FE8021854802F01AFE10BD10B5082141
:104E2000824802F016FE1021804802F010FE202178
:104E30007E4802F00CFE40217C4802F00AFE8021F0
:104E40007A4802F004FE10BD10B50821774802F040
:104E5000FEFD1021754802F0FCFD2021734802F090
:104E6000F6FD4021714802F0F4FD80216F4802F008
:104E7000EEFD10BD10B508216C4802F0EAFD1021CE
:104E80006A4802F0E6FD2021684802F0E0FD40217A
:104E9000664802F0DEFD8021644802F0D8FD10BDB6
:104EA00010B50821614802F0D2FD10215F4802F0E0
:104EB000CEFD20215D4802F0CCFD40215B4802F090
:104EC000C8FD8021594802F0C2FD10BD10B508216F
:104ED000564802F0BEFD1021544802F0B8FD2021D2
:104EE000524802F0B6FD4021504802F0B2FD802148
:104EF0004E4802F0ACFD10BD10B508214B4802F041
:104F0000A6FD1021494802F0A4FD2021474802F0E7
:104F1000A0FD4021454802F09CFD8021434802F05D
:104F200096FD10BD10B50821404802F092FD1021F9
:104F30003E4802F08EFD20213C4802F08AFD4021CF
:104F40003A4802F086FD8021384802F080FD10BD0D
:104F500010B50821354802F07AFD1021334802F0DF
:104F600076FD2021314802F072FD40212F4802F0E9
:104F70006EFD80212D4802F06CFD10BD10B508219A
:104F80002A4802F066FD1021284802F060FD202129
:104F9000264802F05CFD4021244802F058FD8021A3
:104FA000224802F056FD10BD10B508211F4802F03E
:104FB0004EFD10211D4802F04CFD20211B4802F03F
:104FC00046FD4021194802F042FD8021174802F0B9
:104FD00040FD10BD10B50821144802F03AFD102123
:104FE000124802F036FD2021104802F030FD402129
:104FF0000E4802F02CFD80210C4802F02AFD10BD65
:1050000010B50821094802F022FD1021074802F0DE
:105010001EFD2021054802F01CFD4021034802F03E
:1050200016FD8021014802F014FD10BD001C014056
:1050300010B50821EF4802F00CFD1021ED4802F0F8
:1050400006FD2021EB4802F004FD4021E94802F072
:10505000FEFC8021E74802F0FCFC10BD10B50821E1
:10506000E44802F0F4FC1021E24802F0F2FC2021B6
:10507000E04802F0EEFC4021DE4802F0E8FC80212E
:10508000DC4802F0E6FC10BD10B50821D94802F05A
:10509000E0FC1021D74802F0DCFC2021D54802F0CA
:1050A000D8FC4021D34802F0D2FC8021D14802F044
:1050B000D0FC10BD10B50821CE4802F0C8FC10216C
:1050C000CC4802F0C4FC2021CA4802F0C0FC4021B8
:1050D000C84802F0BEFC8021C64802F0BAFC10BDF0
:1050E00010B50821C34802F0B4FC1021C14802F0F9
:1050F000AEFC2021BF4802F0AAFC4021BD4802F0CE
:10510000A8FC8021BB4802F0A4FC10BD10B508210A
:10511000B84802F09CFC1021B64802F09AFC20210D
:10512000B44802F094FC4021B24802F092FC802185
:10513000B04802F08EFC10BD10B50821AD4802F059
:1051400088FC1021AB4802F084FC2021A94802F021
:105150007EFC4021A74802F07CFC8021A54802F09B
:1051600078FC10BD10B50821A24802F070FC102197
:10517000A04802F06CFC20219E4802F06AFC40210D
:105180009C4802F066FC80219A4802F062FC10BD47
:1051900010B50821974802F05CFC1021954802F0F8
:1051A00056FC2021934802F054FC4021914802F023
:1051B00050FC80218F4802F04CFC10BD10B5082136
:1051C0008C4802F044FC10218A4802F042FC202165
:1051D000884802F03EFC4021864802F03AFC8021DB
:1051E000844802F036FC10BD10B50821814802F059
:1051F00030FC10217F4802F02CFC20217D4802F079
:1052000028FC40217B4802F024FC8021794802F0F0
:1052100020FC10BD10B5FFF73BFD7748006826283D
:1052200071D2DFE800F07013192228313740467040
:10523000704F555E67717A838C959EA7B0B9F5F46F
:10524000F3F2F1F0EFEEC2CBD4DDF6FFFFF7FCFD99
:105250000220694908601CE16848006820B9FFF72E
:10526000F3FD64206449086013E1FFF7B3FE0420F6
:10527000614908600DE16148006820B9FFF7AAFEA6
:1052800064205D49086004E1FFF786FD06205A4965
:105290000860FEE05948006820B9FFF77DFD6420F2
:1052A00055490860F5E0FFF78DFD08205249086078
:1052B000EFE05248006820B9FFF784FD64204E49B2
:1052C0000860E6E0FFF770FE0C204B490860E0E064
:1052D0004A48006820B9FFF767FE64204649086025
:1052E000D7E04648006820B9FFF7FEFC6420424939
:1052F0000860CEE04148006820B9FFF70BFD64204C
:105300003D490860C5E0C3E03C48006820B9FFF7AC
:1053100017FD642038490860BBE03848006820B9B0
:10532000FFF724FD642034490860B2E03348006888
:1053300020B9FFF75DFD64202F490860A9E02F48E0
:10534000006820B9FFF76AFD64202B490860A0E0DF
:105350002A48006820B9FFF753FE642026490860F8
:1053600097E02648006820B9FFF762FE64202249D2
:1053700008608EE02148006820B9FFF76FFE6420C6
:105380001D49086085E01D48006820B9FFF77CFED4
:105390006420194908607CE01848006820B9FFF7CC
:1053A00089FE64201449086073E01448006820B93D
:1053B000FFF7C2FE6420104908606AE00F480068E9
:1053C00020B9FFF7CFFE64200B49086061E00B486D
:1053D000006820B9FFF7DCFE64200749086058E048
:1053E0000648006820B9FFF7E9FE6420024908601A
:1053F0004FE017E0001C01404800002020812342BC
:1054000007E03FE038E031E02AE023E01CE015E06F
:105410000EE0FD48006820B9FFF7E6FE6420FB4976
:10542000086036E0FFF74AFC6420F849086030E085
:10543000FFF720FD6420F54908602AE0FFF730FD02
:105440006420F249086024E0FFF740FD6420EF4942
:1054500008601EE0FFF750FD6420EC49086018E08A
:10546000FFF760FD6420E949086012E0FFF770FD76
:105470006420E64908600CE0FFF732FE6420E3494F
:10548000086006E0FFF742FE6420E049086000E0A3
:1054900000BF00BF10BD10B5DD48007801280DD158
:1054A000D9480068B8B9DA480078DA49C8600020FD
:1054B000D74908700B20D54908600CE0D548C06872
:1054C000D3490978884206D0D1480078D149C860CC
:1054D0006420CE490860D048007890B9CA48006876
:1054E000E0B9CD480078CB4988611D20C7490860E4
:1054F0000120C94908700620C8498860C8498860E9
:105500000CE0C4488069C4490978884206D0C24882
:105510000078C04988616420BC490860C1480078AF
:10552000C149097888420AD0BF480078BD4908704F
:1055300008460078012802D11F20B4490860BB4802
:105540000078012816D1B1480068172802DD012033
:10555000AE490860AC48006800BBB44800780CF065
:105560001AF9AC4948620020B04908700120A749E7
:10557000086013E0AD4800780CF00DF90446A5482A
:10558000416A20460CF0EEF908D0A84800780CF0EB
:1055900002F9A049486264209C490860A448007848
:1055A000012814D199480068172802DD072097497F
:1055B000086095480068B8B99D4800789549086129
:1055C0000720924908600020994908700CE0914832
:1055D000006997490978884206D0954800788D4936
:1055E00008610020894908609248007801280DD19F
:1055F00085480068B8B98F4800788649486103201B
:105600008249086000208B4908700CE0814840699D
:1056100088490978884206D0864800787D494861E3
:1056200064207A4908607E4800787A49097888427F
:105630000FD07B48007877490870794800780128B6
:1056400003D10D20714908609CE00E206F4908606D
:1056500098E0734840786F49497888420FD0704885
:1056600040786C4948706E484078012803D10F207B
:105670006649086086E010206449086082E0684856
:1056800080786449897888420FD06548807861497C
:10569000887063488078012803D111205B49086035
:1056A00070E01220594908606CE05D484079594922
:1056B000497988420FD05A4840795649487158482C
:1056C0004079012803D11320504908605AE0142082
:1056D0004E49086056E05248C0784E49C978884221
:1056E0000FD04F48C0784B49C8704D48C07801284A
:1056F00003D115204549086044E01620434908605D
:1057000040E04748C0794349C97988420FD04448AE
:10571000C0794049C8714248C079012803D120208E
:105720003A4908602EE02120384908602AE03C48C8
:1057300000793849097988420FD0394800793549CC
:10574000087137480079012803D122202F490860C9
:1057500018E023202D49086014E0314880792D4954
:10576000897988420ED02E4880792A4988712C4840
:105770008079012803D124202449086002E02520F3
:10578000224908602648806807287FD2DFE800F0B9
:105790000412202E54627000214880681D498968D7
:1057A000884206D01E4880681A4988601E20174922
:1057B00008606BE01A48806816498968884206D0FC
:1057C00017488068134988601820104908605DE018
:1057D000134880680F498968884206D0104880685D
:1057E0000C4988601920094908604FE00C4880681E
:1057F00008498968884206D0094880680549886058
:105800001A200249086041E020812342480000201C
:105810000C0100206E0A00201101002020B500209C
:1058200054B500204C0000200F0100200D01002085
:10583000100100200E010020154880681549896874
:10584000884206D012488068124988601B2012499D
:1058500008601BE00E4880680E498968884206D0BF
:105860000B4880680B4988601C200B4908600DE0DC
:105870000748806807498968884206D004488068DC
:10588000044988601D200449086000BF00BF10BDA6
:1058900054B500206E0A00204800002008B5012100
:1058A000802002F0E3FA0220ADF8000010208DF80D
:1058B000030003208DF8020069460A4802F01AF836
:1058C0000221084802F0C5F808BD10B502210548BC
:1058D00002F0BDF810BD10B50221024802F0B9F87F
:1058E00010BD0000001C014008B50121802002F01D
:1058F000BDFA4FF4A040ADF8000010208DF8030071
:1059000003208DF802006946104801F0F3FF4FF4C0
:10591000A0410E4802F09DF808BD10B54FF480512B
:105920000A4802F094F84FF48041084802F08FF8DA
:1059300010BD10B54FF48051044802F08AF84FF4BE
:105940008041024802F085F810BD0000001C0140B3
:1059500008B50121802002F089FA4FF40050ADF81B
:10596000000010208DF8030003208DF80200694626
:105970000B4801F0BFFF4FF40051094802F069F8ED
:1059800008BD10B54FF40051054802F060F810BD95
:1059900010B54FF40051024802F05BF810BD000052
:1059A000001C01400246134610E010782A2805D05A
:1059B0001078202802DB10787A2801DDFF2070475C
:1059C00010782C2801D1481EC1B2521C0029ECD1FC
:1059D000D01AC0B2F3E710B50246012000E05043F0
:1059E0000B1EA1F10104E1B2F9D110BD2DE9F34F75
:1059F00081B007463C460020009083468146002641
:105A0000804628E020782D2802D148F00208641C46
:105A100020782C2802D020782A2800D11CE0207879
:105A20002E2803D148F00108641C09E020783928A9
:105A300002DC2078302803DA4FF0000900260BE062
:105A400008F0010010B1701CC6B203E009F10100BA
:105A500000F0FF09641CD5E700BF08F0020000B1A8
:105A60007F1C00250EE0A9F10100401BC1B20A20F5
:105A7000FFF7B1FF795D3039009A00FB01200090FB
:105A8000681CC5B24D45EEDB052E00DD05260298EB
:105A9000067000250EE0701E401BC1B20A20FFF701
:105AA0009AFF09F101012944795C303900FB01BBFF
:105AB000681CC5B2B542EEDB31460A20FFF78BFF0A
:105AC000009901FB00BA08F0020008B1CAF1000A0F
:105AD0005046BDE8FE8F2DE9FC5F07468A464FF031
